:020000040800F2
:1000000088100020C10A0008BD040008BF040008D1
:10001000C3040008C7040008CB0400080000000067
:10002000000000000000000000000000CF040008F5
:10003000D104000800000000D3040008D504000823
:10004000DB0A0008DB0A0008DB0A0008DB0A0008FC
:10005000DB0A0008DB0A0008DB0A0008DB0A0008EC
:10006000DB0A0008DB0A0008DB0A0008DB0A0008DC
:10007000DB0A0008DB0A0008DB0A0008DB0A0008CC
:10008000DB0A0008DB0A0008DB0A0008DB0A0008BC
:10009000DB0A0008DB0A0008DB0A0008DB0A0008AC
:1000A000DB0A0008DB0A0008DB0A0008DB0A00089C
:1000B000DB0A0008DB0A0008DB0A0008DB0A00088C
:1000C000DB0A0008DB0A0008DB0A0008DB0A00087C
:1000D000DB0A00080D0900081F0A0008DB0A0008F7
:1000E000DB0A0008DB0A0008DB0A0008DB0A00085C
:1000F000DB0A0008DB0A0008DB0A0008DB0A00084C
:10010000DB0A0008DB0A0008DB0A0008DB0A00083B
:10011000DB0A0008DB0A0008DB0A0008DB0A00082B
:10012000DB0A0008DB0A0008DB0A0008DB0A00081B
:1001300000F002F800F0B0F80AA090E8000C824449
:100140008344AAF10107DA4501D100F0A5F8AFF226
:10015000090EBAE80F0013F0010F18BFFB1A43F0A5
:100160000103184734430000544300000A444FF091
:10017000000C10F8013B13F0070408BF10F8014B06
:100180001D1108BF10F8015B641E05D010F8016B4B
:10019000641E01F8016BF9D113F0080F1EBF10F8AF
:1001A000014BAD1C0C1B09D16D1E58BF01F801CBD2
:1001B000FAD505E014F8016B01F8016B6D1EF9D555
:1001C0009142D6D37047000000230024002500266A
:1001D000103A28BF78C1FBD8520728BF30C148BFAA
:1001E0000B6070476E2902F01B86702902F08D8724
:1001F000662904F0A380652904F0A080672904F033
:100200009D80612904F09C8003681B0A28BF41F08F
:100210008001692902F0E883642902F0E5837529E9
:1002200002F0E2836F2902F01A87782902F05987D9
:10023000E92902F0B586E42902F0B286F52902F038
:10024000AF86EF2902F01787F82902F05887036874
:10025000DB0928BF41F08001632902F0248673295D
:1002600002F02986E32903F03783F32903F03C8366
:10027000002070471FB503F08DFB04000020002113
:1002800004F046F8401C60600020002104F02AF8C9
:10029000E0601FBD10B510BD03F04EFB1146FFF727
:1002A000E9FF00F090F803F02BFC03B4FFF7F2FF36
:1002B00003BC00F099FA000010B540216B4800F033
:1002C00080FD18BB40F6B83000F061FA4021674865
:1002D00000F077FDD0B900206549086065480078D6
:1002E00010B1012808D103E0002001F0F2FC04E085
:1002F000012001F0EEFC00E000BF00BF5D48007887
:1003000008B9012000E000205A49087010BD10B55E
:10031000044601F0EFFC05284DD2DFE800F0031E93
:10032000373D3E000020524908602068022801D174
:1003300000202060206800EBD0714910A0EB410143
:1003400029B94FF400514C4800F057FD04E04FF438
:100350000051494800F04FFD33E000204449086057
:1003600020681E2801DB00202060206828B94FF497
:100370000051414800F041FD07E020680F2804D1FA
:100380004FF400513C4800F036FD1AE04FF40051A4
:10039000394800F030FD14E013E03548006848B9F2
:1003A0004FF40051344800F028FD01203049086026
:1003B0000020206005E04FF400512F4800F01BFDA5
:1003C00000BF00BF10BD4FF4A06000F099FB00F02B
:1003D000A1F94FF4165000F04DFA4FF4165000F00A
:1003E000CDFA00F069F900F083F901F056FC23A082
:1003F00000F09BFA39E01E480068C0B92248006846
:10040000401C214908600846006841F2707190FB69
:10041000F1F201FB120038B900201B4908601B48AB
:100420000068401C194908601848FFF770FF01F088
:10043000ADFBFFF741FF164800684EF66021884289
:100440000BD901F074FC134802681348016813A02B
:1004500000F06BFA00200E4908600D480068401C4F
:100460000B490860012000F092F9C4E70008014040
:10047000100000201800002000100140696E69740F
:10048000206F6B0D0A000000080000200C00002007
:100490001400002000000020040000207468652083
:1004A00068756D2069732025642C746865207465F7
:1004B0006D2069732025640D0A000000704700BF9D
:1004C000FEE700BFFEE700BFFEE700BFFEE77047A4
:1004D00070477047704700000CB5002001900090F5
:1004E0006C48006840F480306A49086000BF694881
:1004F000006800F4003000900198401C01900098C2
:1005000018B90198B0F5A06FF1D16248006800F405
:10051000003010B10120009001E000200090009810
:10052000012843D15C48006840F010005A49086037
:100530000846006820F0030008600846006840F0A4
:1005400002000860534840685249486008464068C5
:1005500048600846406840F480604860084640684B
:1005600020F47C1048600846406840F4E810486079
:100570000846006840F08070086000BF4548006889
:1005800000F000700028F9D04248406820F00300D5
:10059000404948600846406840F00200486000BF9B
:1005A0003C48406800F00C000828F9D10CBD10B59B
:1005B000FFF792FF10BD10B53648006840F001000B
:1005C0003449086008464068344908403149486069
:1005D00008460068324908402E490860084600680D
:1005E00020F4802008600846406820F4FE0048603F
:1005F0004FF41F008860FFF7DAFF4FF000602949D1
:10060000086010BD10B5002100200022214B5B685E
:1006100003F00C0121B1042906D0082928D107E0F4
:10062000214B224C236027E01F4B204C236023E00A
:10063000184B5B6803F47010164B5B6803F4803250
:10064000022303EB904022B9194B4343174C23601C
:100650000DE0104B5B6803F4003323B1144B4343AC
:10066000124C236003E0104B4343104C236003E023
:100670000D4B0E4C236000BF00BF064B5B68C3F3FD
:1006800003130C4CE15C094B1B68CB40074C236007
:1006900010BD000000100240002002400000FFF8E2
:1006A000FFFFF6FE08ED00E000127A001C000020BB
:1006B00000093D002000002008B50121102000F0B5
:1006C000A9FD4FF40050ADF8000010208DF8030094
:1006D00003208DF802006946044800F0DFFA4FF469
:1006E0000051024800F087FB08BD000000100140E7
:1006F00008B50121042000F08DFD4020ADF8000078
:1007000048208DF803006946014800F0C7FA08BD8B
:100710000008014010B56FF0040000F040FA2E48C8
:1007200000682E49B0FBF1F02D49087008460078AA
:1007300000EB4001C1EBC0104FF6FF7101EAC000B1
:100740002849088010BD0146254A12784A434FF0D7
:10075000E0235A6100229A611A46126942F00102AE
:100760001A6100BF4FF0E022106900F001021AB1D7
:1007700000F48032002AF5D04FF0E022126922F016
:1007800001024FF0E0231A6100229A61704701468E
:10079000144A12884A434FF0E0235A6100229A61BA
:1007A0001A46126942F001021A6100BF4FF0E022BE
:1007B000106900F001021AB100F48032002AF5D06D
:1007C0004FF0E022126922F001024FF0E0231A619B
:1007D00000229A61704700001C00002000127A007D
:1007E000300000203200002000BF704770B5044682
:1007F0000D46AC48007838B90120AA49087040F28B
:100800002661A94800F054FF00BFA748008800F007
:1008100040000028F9D0E0B2A349091D0880204615
:1008200070BD0FB410B5B4B0002437A80090C92132
:1008300001A8009B369A02F071F80EE02046621C77
:10084000D4B201AA115C984800F084FE00BF402198
:10085000954800F0EDFE0028F9D0C82C04DA01A874
:1008600002F0C2F9A042E9D80020009034B010BCD8
:100870005DF814FB10B586B00446012144F2040073
:1008800000F0C8FC4FF40070ADF8140003208DF8A0
:10089000160018208DF8170005A9844800F0FEF90D
:1008A0004FF48060ADF8140004208DF8170005A9FE
:1008B0007E4800F0F3F925208DF8000003208DF824
:1008C00001008DF8020001208DF80300684600F059
:1008D0001CF901940020ADF80800ADF80A00ADF84D
:1008E0000C00ADF810000C20ADF80E0001A96E4808
:1008F00000F037FD012240F225516B4800F0C9FDA0
:100900000121694800F0B9FD06B010BD10B540F2F4
:100910002551654800F0A2FE30B1634800F01EFE8C
:10092000C4B2204601F0FCF810BD0FB410B5B4B04D
:10093000002437A80090C92101A8009B369A01F035
:10094000EDFF0EE02046621CD4B201AA115C5848AB
:1009500000F000FE00BF4021554800F069FE00286D
:10096000F9D0C82C04DA01A802F03EF9A042E9D877
:100970000020009034B010BC5DF814FB10B586B0B8
:1009800004460121042000F045FC0121480400F048
:100990004EFC0820ADF8140004208DF8170005A9BE
:1009A000424800F07BF90420ADF8140003208DF8D4
:1009B000160018208DF8170005A93C4800F06EF9C4
:1009C00001940020ADF80800ADF80A00ADF80C0065
:1009D000ADF810000C20ADF80E0001A9344800F06D
:1009E000C0FC012240F22551314800F052FD0121A6
:1009F0002F4800F042FD4FF4E06000F081F826201F
:100A00008DF8000003208DF801008DF80200012010
:100A10008DF80300684600F078F806B010BD10B5F8
:100A200040F22551224800F019FE002838D0204815
:100A300000F094FDC4B221461EA001F089FF1E48BB
:100A4000008800F4004058BB1B48008800F4804038
:100A500060B10A2C03D000201749088020E0164816
:100A6000008840F400401449088019E00D2C06D19C
:100A70001148008840F480400F49088010E00E487B
:100A80000088C0F30D000D490C540B480088401C31
:100A90000949088008460088C72801DD0020088031
:100AA00010BD00003C00002000380140000801405B
:100AB00000440040256300003A0000204403002069
:100AC0000948804709480047FEE7FEE7FEE7FEE7E2
:100AD000FEE7FEE7FEE7FEE7FEE7FEE7044805491E
:100AE000054A064B70470000B705000831010008B1
:100AF000880A002088100020880C0020880C002024
:100B000031490143314A1160704770B5002100231B
:100B10000F22C47804B32D4C246804F4E064C4F5B7
:100B2000E064210AC1F10403CA40447804FA03F1E5
:100B30008478144021430901254C0678A155047896
:100B400004F01F050124AC4005786D11AD0005F1DE
:100B5000E025C5F8004109E0047804F01F050124F0
:100B6000AC401C4D0678761145F8264070BD1A4AF7
:100B70000A400243154B1B1F1A60704739B1134AD4
:100B8000121D12680243114B1B1D1A6006E00F4A2A
:100B9000121D126882430D4B1B1D1A6070470428FA
:100BA00008D14FF0E021096941F004014FF0E02243
:100BB000116107E04FF0E021096921F004014FF0D5
:100BC000E0221161704700000000FA050CED00E022
:100BD00000E400E080E100E080FFFF1F10B5044664
:100BE000CC48844208D10121042000F02DFB0021D3
:100BF000042000F029FB46E0C748844208D10121C7
:100C0000082000F021FB0021082000F01DFB3AE045
:100C1000C248844208D10121102000F015FB0021B8
:100C2000102000F011FB2EE0BD48844208D10121C4
:100C3000202000F009FB0021202000F005FB22E02D
:100C4000B848844208D10121402000F0FDFA00217B
:100C5000402000F0F9FA16E0B348844208D101219F
:100C6000802000F0F1FA0021802000F0EDFA0AE087
:100C7000AE48844207D10121801500F0E5FA002139
:100C8000A01500F0E1FA10BD10B50121084600F0F2
:100C9000DBFA0021012000F0D7FA10BD2DE9F04168
:100CA000024600250026002000230024002791F89A
:100CB00003C00CF00F0591F803C00CF0100CBCF150
:100CC000000F03D091F802C04CEA050591F800C06E
:100CD000BCF1000F31D0146800202BE04FF0010C64
:100CE0000CFA00F3B1F800C00CEA03069E4220D1D2
:100CF00083004FF00F0C0CFA03F7BC4305FA03FC1A
:100D00004CEA040491F803C0BCF1280F06D14FF05F
:100D1000010C0CFA00FCC2F814C00AE091F803C000
:100D2000BCF1480F05D14FF0010C0CFA00FCC2F8E1
:100D300010C0401C0828D1D31460B1F800C0BCF129
:100D4000FF0F34DD546800202EE000F1080C4FF056
:100D5000010808FA0CF3B1F800C00CEA03069E4241
:100D600021D183004FF00F0C0CFA03F7BC4305FAB6
:100D700003FC4CEA040491F803C0BCF1280F05D130
:100D800000F1080C08FA0CF8C2F8148091F803C0BE
:100D9000BCF1480F07D100F1080C4FF0010808FA28
:100DA0000CF8C2F81080401C0828CED35460BDE86F
:100DB000F0814FF6FF710180022181700421C17022
:100DC00070470246002093680B400BB1012000E001
:100DD000002070470146886880B2704702460020B4
:100DE000D3680B400BB1012000E0002070470146A2
:100DF000C86880B2704701617047416170470AB1AD
:100E0000016100E041617047C16070474FF480327A
:100E10000A43826181618261826982697047024608
:100E20000020434B18684FF68073184040EA0210C8
:100E300008433F4B186070473E49C8617047F0B5A2
:100E40000A46002300240021002500F00046B6F1E8
:100E5000004F02D1364EF16901E0354E7168C0F3A2
:100E6000034583B200F44016B6F5401F08D121F0C7
:100E700070612F4E766826F070662D4F7E6012E00E
:100E800000F48016B6F5801F06D1032606FA05F495
:100E9000A14341F0706106E0460D360103FA06F603
:100EA000B14341F0706122B1460D360103FA06F6F6
:100EB000314300F00046B6F1004F02D11C4EF16103
:100EC00001E01B4E7160F0BD30B500228B071C0F96
:100ED0000F2303FA04F2164B08338C1053F8243016
:100EE0009343134C08348D1044F8253023468C105E
:100EF00053F824308C07240F00FA04F423430C4CDD
:100F000008348D1044F8253030BD0A49DC310860C2
:100F10007047000000080140000C01400010014033
:100F20000014014000180140001C01400020014055
:100F30000000014000002042DF48006840F001004E
:100F4000DD49086008464068DC490840DA494860E5
:100F500008460068DA490840D74908600846006832
:100F600020F4802008600846406820F4FE004860B5
:100F70004FF41F0088607047CF49096821F4803121
:100F8000CD4A11601146096821F480211160B0F545
:100F9000803F03D0B0F5802F0ED106E0C649096826
:100FA00041F48031C44A116007E0C349096841F443
:100FB000A021C14A116000E000BF00BF704710B51A
:100FC00001460022002300204A11012A02D1BA4C16
:100FD000236806E0022A02D1B74C236A01E0B64C2E
:100FE000636A01F01F02012494401C400CB10120EF
:100FF00000E0002010BD38B500200090002400253E
:1010000000BF3120FFF7DBFF05460098401C009031
:101010000098B0F5A06F01D0002DF2D03120FFF77D
:10102000CEFF08B1012400E00024204638BD01466F
:101030000020A14A106820F0F80040EAC1001060CA
:101040007047A04908607047024600209A4B5868D4
:1010500020F47C1042EA01031843974B5860704714
:1010600098490866704701460020934A506820F06E
:1010700003000843506070478F48406800F00C0040
:101080007047014600208C4A506820F0F000084369
:101090005060704701460020874A506820F4E060A5
:1010A00008435060704701460020834A506820F48E
:1010B000605040EAC1005060704729B17E4A527AC0
:1010C00002437D4B5A7204E07B4A527A82437A4B48
:1010D0005A7270477B49D83108607047014600203A
:1010E000754A506820F44040084350607047002122
:1010F000714A20321170704A82F82010012802D003
:1011000004280AD104E001216B4A2032117005E065
:101110000521694A2032117000E000BF00BF70470E
:101120006949086070476449096A0143624A11626B
:101130007047654944390860704730B50021002286
:10114000002400235C4D6D6805F00C0121B10429D9
:1011500005D0082923D105E05C4D056022E05B4DF8
:1011600005601FE0544D6D6805F47012524D6D68B6
:1011700005F48034022505EB92421CB9544D5543C9
:1011800005600BE04C4D6D6805F400351DB1504D08
:101190005543056002E04D4D5543056002E04B4D5F
:1011A000056000BF00BF444D6D6805F0F0010909FE
:1011B000484D6B5C0568DD4045603F4D6D6805F44A
:1011C000E061090A434D6B5C4568DD4085603A4D3E
:1011D0006D6805F46051C90A3E4D6B5C4568DD40A1
:1011E000C560354D6D6805F44041890B3A4D6B5C27
:1011F000C568B5FBF3F5056130BD29B12E4A5269CA
:1012000002432D4B5A6104E02B4A526982432A4B18
:101210005A61704729B1284A92690243264B9A6164
:1012200004E0254A92698243234B9A61704729B1B1
:10123000214AD2690243204BDA6104E01E4AD26996
:1012400082431D4BDA61704729B11B4AD2680243C1
:10125000194BDA6004E0184AD2688243164BDA6010
:10126000704729B1144A12690243134B1A6104E012
:10127000114A12698243104B1A6170471249403972
:10128000086070470F49C86470470B49C8717047C0
:101290000948406A40F0807007494862704701463B
:1012A0000020054A92680A400AB1012000E00020AF
:1012B0007047014988727047001002400000FFF833
:1012C000FFFFF6FE000042428004424200127A0014
:1012D00000093D003D0000204D00002010B50446EF
:1012E000FB48844209D101218803FFF7ADFF0021AB
:1012F0004FF48040FFF7A8FF32E0F648844209D15E
:1013000001214804FFF7ADFF00214FF40030FFF743
:10131000A8FF25E0F048844209D101218804FFF7A5
:10132000A0FF00214FF48020FFF79BFF18E0EB485F
:10133000844209D10121C804FFF793FF00214FF433
:101340000020FFF78EFF0BE0E548844208D1012121
:101350000805FFF786FF00214FF48010FFF781FF9B
:1013600010BD2DE9F04786B005460E460024A24682
:1013700000BFA1460027B08900B100BF2F462C8ACC
:101380004CF6FF700440F08804432C82AC894EF682
:10139000F3100440B088318908437189084304433D
:1013A000AC81AC8A4FF6FF400440B0890443AC8264
:1013B00001A8FFF7C2FEC648874202D1DDF810A09F
:1013C00001E0DDF80CA0A88900F4004040B10AEB70
:1013D000CA0000EB0A1031684900B0FBF1F807E0E1
:1013E0000AEBCA0000EB0A1031688900B0FBF1F883
:1013F0006420B8FBF0F004012009642101FB10898E
:10140000A88900F4004040B1322000EBC900B0FBD5
:10141000F1F000F00700044308E0322000EB09106F
:101420006421B0FBF1F000F00F0004432C8106B002
:10143000BDE8F0874FF41651016000218180C18022
:1014400001810C21418100218181704710B5024644
:101450000020108A4FF2FF0318400B884C8823436A
:101460008C882343CC8823431843108210BD00216D
:10147000018041808180C180704721B1828942F41E
:101480000052828104E082894DF6FF731A40828106
:101490007047F0B50346002400260025002040F6E2
:1014A0006A17B94200D100BF1846C1F3421401F0D7
:1014B0001F06012707FA06F5012C01D10C3004E0C4
:1014C000022C01D1103000E014301AB107682F430C
:1014D000076002E00768AF430760F0BD1AB1838A76
:1014E0000B43838202E0838A8B4383827047028AA4
:1014F0004FF6F0731A400282028A0A430282704752
:1015000082894FF2FF731A40828182890A43828165
:10151000704721B1828942F00202828104E082890F
:101520004FF6FD731A4082817047028A4FF6DF73CF
:101530001A400282028A0A430282704721B1028A5B
:1015400042F48042028204E0028A4BF6FF731A40A2
:1015500002827047C1F30802828070470146888882
:10156000C0F308007047818941F001018181704713
:10157000028BD2B20283028B42EA012202837047BD
:10158000028B02F47F420283028B0A43028370477C
:1015900021B1828A42F02002828204E0828A4FF6E0
:1015A000DF731A408282704721B1828A42F01002B2
:1015B000828204E0828A4FF6EF731A40828270477B
:1015C00021B1828A42F00802828204E0828A4FF6C8
:1015D000F7731A408282704721B1828942F4004237
:1015E000828103E08289C2F30E028281704721B1B9
:1015F000828A42F40062828204E0828A4FF2FF73A0
:101600001A4082827047828A4FF6FB731A408282A8
:10161000828A0A438282704721B1828A42F00202A2
:10162000828204E0828A4FF6FD731A4082827047FC
:1016300002460020B1F5007F00D100BF13880B40A7
:101640000BB1012000E00020704701F40072B2F5F8
:10165000007F00D100BFCA430280704770B50246C8
:10166000002400230025002040F66A16B14200D174
:1016700000BFC1F3421501F01F03012606FA03F370
:10168000012D02D19689334006E0022D02D1168A3F
:10169000334001E0968A33400C12012606FA04F426
:1016A0001688344013B10CB1012000E0002070BD59
:1016B00010B50022002340F66A14A14200D100BFF9
:1016C0000A1201249440A3B2DC43048010BD000040
:1016D000003801400044004000480040004C0040F9
:1016E000005000400246302A05DB392A03DCA2F113
:1016F0003003DAB20EE0412A05DB462A03DCA2F110
:101700003703DAB206E0612A04DB662A02DCA2F1C2
:101710005703DAB202F00F000001302905DB392946
:1017200003DCA1F13003D9B20EE0412905DB4629E3
:1017300003DCA1F15703D9B206E0612904DB662975
:1017400002DCA1F15703D9B201F00F03184370472F
:101750000146002209B900207047002200E0521C17
:1017600011F8013B002BFAD11046F5E730B50346DE
:101770000C4619460BB9002030BD01E001F8014BC1
:10178000101EA2F10105AAB2F8D11846F4E7F0B58F
:1017900005460E4613462A46344605B10EB90020CA
:1017A000F0BDA24202D9E018904208D2002103E025
:1017B000605C5054481C81B29942F9DB07E019463D
:1017C00003E0481E275C175481B20029F9DC284643
:1017D000E6E7024602B109B900207047134603E06C
:1017E00011F8010B02F8010B08780028F8D11070ED
:1017F0001846F2E7024601E0521C491C107828B155
:10180000087818B110780B789842F5D010780B78DA
:10181000C01A7047020E0A70020C4A70020A8A70DF
:10182000C870704701460020087800024A781043CB
:1018300000028A7810430002CA78104370472DE9ED
:10184000F0410646884614460027F74800780128EC
:1018500001D1BDE8F0813146384600F0D3FD07469E
:101860000021384600F0CEFD07462546E01704EB80
:101870001060C0F30721384600F0C4FD0746E017AA
:1018800004EB10600012A4EB0020C1B2384600F057
:10189000B9FD074622464146384600F0B9FD0746E5
:1018A0003A460321072000F0E4FD0120D1E770B59E
:1018B00004460D460026DC480078012800D170BDA2
:1018C0002146304600F09EFD06460121304600F0DC
:1018D00099FD06460021304600F094FD06460121A0
:1018E000304600F08FFD06462DB90021304600F04D
:1018F00089FD064604E00121304600F083FD0646DE
:1019000032460321072000F0B4FD0120D7E770B56F
:1019100005460C460026C4480078012800D170BD59
:101920002946304600F06EFD06460221304600F0A2
:1019300069FD06460021304600F064FD064604219C
:10194000304600F05FFD0646210E304600F05AFD9D
:101950000646C4F30741304600F054FD0646C4F382
:101960000721304600F04EFD0646E1B2304600F059
:1019700049FD064632460321072000F07AFD01208A
:10198000CDE72DE9F0410646884614460027A648D3
:101990000078012801D1BDE8F0813146384600F0D9
:1019A00031FD07460321384600F02CFD0746254649
:1019B000E01704EB1060C0F30721384600F022FD69
:1019C0000746E01704EB10600012A4EB0020C1B240
:1019D000384600F017FD074622464146384600F0DB
:1019E00017FD07463A460321072000F042FD01207B
:1019F000D1E770B504460E4600258B4800780128D3
:101A000000D170BD2146284600F0FCFC05460421AB
:101A1000284600F0F7FC05460021284600F0F2FCBD
:101A200005460121284600F0EDFC054631462846D2
:101A300000F0E8FC05462A460321072000F019FDC6
:101A40000120DEE770B505460C4600267648007892
:101A5000012800D170BD2946304600F0D3FC06466F
:101A60000521304600F0CEFC06460021304600F04D
:101A7000C9FC064644F0FF00FF280AD10121304688
:101A800000F0C0FC0646E1B2304600F0BBFC064662
:101A900032E04FF6FF7020434FF6FF71884210D1BD
:101AA0000221304600F0AEFC0646C4F30721304662
:101AB00000F0A8FC0646E1B2304600F0A3FC064662
:101AC0001AE00421304600F09DFC0646210E304607
:101AD00000F098FC0646C4F30741304600F092FC43
:101AE0000646C4F30721304600F08CFC0646E1B2FE
:101AF000304600F087FC064632460321072000F0FE
:101B0000B8FC0120A6E7024610787047024610781C
:101B1000704710B503460C461846FFF783FE10BD0C
:101B200042490968424A1268891A01291FD040496E
:101B300009683E4A1268914208D93D4909683B4A02
:101B40001268891A40F20722914210D238490A6875
:101B500038498A4203D3A1F20721354A116034493A
:101B60000968087032490968491C314A1160704798
:101B700030B504460D46002300BF04E0E05CFFF7EB
:101B8000CFFF581C83B2AB42F8DB30BD70B50024E8
:101B9000002509E000F09FFE27490A880988491CB2
:101BA000254B1980254988542348008840F2072195
:101BB000884203D200F085FE0028EBDC1E48008836
:101BC000072800DA70BD50E01C48005D552802D09F
:101BD000601C84B249E01949601C085CAA2802D044
:101BE000601C84B241E01549A01C085C10B1A01C27
:101BF00084B23AE01149201D085C4FF6FF7101EAFA
:101C000000250E49601D085CC01D284485B240F2C5
:101C10000E20854202D9E01C84B226E006480088E6
:101C2000001BA8420CDA25E074020020700200209C
:101C30006C0200201A080020520000200C04002032
:101C40006A1E91B2474A101900F0F3FB6119491E50
:101C5000444A515C884202D0E01C84B205E0204630
:101C600000F051FD601984B200BF3F480088001B9E
:101C70000728A9DA00BF3C480088001B3A490880C1
:101C800008460088002806DD3648011936480288D3
:101C90003448FFF77CFD00BF94E7344834490860BE
:101CA00034490860002034490870FF203349087027
:101CB000704733480078704710B5002030490870ED
:101CC00000220321042000F0D4FB10BD2D48007831
:101CD000704770B50446002500202A490870214647
:101CE000284600F08FFBC5B22A460321052000F0EC
:101CF000C0FB70BD21480078704710B50022032159
:101D00001C2000F0B6FB10BD70B504460025012173
:101D1000284600F077FB05462146284600F072FB76
:101D200005462A460321342000F0A3FB70BD10B500
:101D300000240321204600F065FB044622460321CF
:101D4000342000F096FB10BD10B50024042120467D
:101D500000F058FB044622460321342000F089FBA2
:101D600010BD00000C0400205200002013060020CB
:101D70006C02002070020020740200207702002014
:101D8000750200207602002010B50446F84800785D
:101D900038B90120F649087040F22661F548FFF78E
:101DA00087FC2146F348FFF7D5FB00BF4021F148EF
:101DB000FFF73EFC0028F9D010BD70472DE9F04137
:101DC00004460D4629462046FFF7A3FE074639463E
:101DD0000620FFF79CFD0646012E01D1BDE8F081EB
:101DE0000020FBE72DE9F04104460D462946204638
:101DF000FFF78FFE074639460720FFF788FD0646A6
:101E0000012E01D1BDE8F0810020FBE72DE9F04172
:101E100006460F4639463046FFF778FE054615B1AF
:101E2000012D02D100E001E000E000BF00BF294623
:101E30000920FFF7DEFD0446012C01D1BDE8F08149
:101E40000020FBE72DE9F04104460D4629462046D7
:101E5000FFF75FFE074639460A20FFF758FD0646A2
:101E6000012E01D1BDE8F0810020FBE72DE9F04112
:101E700004460D4629462046FFF74BFE07463946E5
:101E80000B20FFF744FD0646012E01D1BDE8F0818D
:101E90000020FBE72DE9F04104460D462946204687
:101EA000FFF737FE074639460C20FFF730FD0646A0
:101EB000012E01D1BDE8F0810020FBE72DE9F041C2
:101EC00004460D4629462046FFF723FE07463946BD
:101ED0000D20FFF71CFD0646012E01D1BDE8F08163
:101EE0000020FBE72DE9F04104460D462946204637
:101EF000FFF70FFE074639461020FFF708FD06469C
:101F0000012E01D1BDE8F0810020FBE72DE9F04171
:101F100004460D4629462046FFF7FBFD0746394695
:101F20001120FFF7F4FC0646012E01D1BDE8F08137
:101F30000020FBE72DE9F04104460D4629462046E6
:101F4000FFF7E7FD074639461220FFF7E0FC06469B
:101F5000012E01D1BDE8F0810020FBE72DE9F04121
:101F600004460D4629462046FFF7D3FD074639466D
:101F70001320FFF7CCFC0646012E01D1BDE8F0810D
:101F80000020FBE72DE9F04104460D462946204696
:101F9000FFF7BFFD074639461420FFF7B8FC064699
:101FA000012E01D1BDE8F0810020FBE72DE9F041D1
:101FB00004460D4629462046FFF7A5FD074639464B
:101FC0001520FFF774FC0646012E01D1BDE8F08113
:101FD0000020FBE72DE9F04104460D462946204646
:101FE000FFF797FD074639461620FFF790FC064697
:101FF000012E01D1BDE8F0810020FBE72DE9F04181
:1020000005460E461746A81F11285ED2DFE800F0ED
:10201000090F5D151B21272D5D5D33393F454B5160
:10202000570039463046FFF7C9FE04464EE03946B0
:102030003046FFF7D7FE044648E039463046FFF702
:10204000E5FE044642E039463046FFF7FBFE044613
:102050003CE039463046FFF709FF044636E0394692
:102060003046FFF717FF044630E039463046FFF7A9
:1020700025FF04462AE039463046FFF733FF044681
:1020800024E039463046FFF741FF04461EE039465A
:102090003046FFF74FFF044618E039463046FFF759
:1020A0005DFF044612E039463046FFF76BFF0446F9
:1020B0000CE039463046FFF779FF044606E0394622
:1020C0003046FFF787FF044600E000BF00BF204610
:1020D000BDE8F081162070473EB5044620780128FF
:1020E0000BD1A07961792279CDE900210290E378C2
:1020F000A278617820A0FEF718FC3EBD7FB50024D1
:1021000000200090019002900390002600250426F4
:1021100000BF13E01F4850F824201FA10DF101005B
:1021200000F022FCC0B28DF800009DF80000421CB7
:102130006946284600F06CF90546641CB442E9DBA8
:10214000012217A10DF1010000F00EFCC0B28DF8C4
:1021500000009DF80000421C6946284600F058F92E
:1021600005462A460321202000F083F97FBD0000A8
:1021700068020020003801405B74696D655D2025B0
:10218000642F25642F25642025643A25643A25644C
:102190000000000058020020772E25730000000088
:1021A000772E646174652E256400000070B50446C6
:1021B0000D460026012C03D162A0FEF7B6FB04E019
:1021C0001CB92E4662A0FEF7B0FB70BD2DE9F043AE
:1021D0008DB081460E4614469846002732220021D3
:1021E0006846FFF7C3FA5EB920780006617840EAD6
:1021F0000140A17840EA0120E17840EA010505E0CC
:10220000012E03D121466846FFF7E3FA54A1484660
:10221000FFF7F0FA38B92A46414653A0FEF785FB8E
:10222000584805603BE058A14846FFF7E3FA38B943
:102230002A46414657A0FEF778FB5E4805602EE02F
:102240005DA14846FFF7D6FA28B92A4641465CA068
:10225000FEF76BFB23E061A14846FFF7CBFAF0B92C
:102260009DF8001060A0FEF760FB9DF801105EA0D5
:10227000FEF75BFB9DF802105BA0FEF756FB00E04B
:102280007F1C07EB4700594A02EB8001684600F0CB
:10229000F1FC0028F4D1394655A0FEF746FB0DB0FD
:1022A000BDE8F0832DE9FC4105460C462E78062E4C
:1022B00043D2DFE806F04203081F2327022C01D097
:1022C000BDE8FC813AE0092C00D0F9E795F80180DF
:1022D000A01E82B2A91C6846FFF759FA00273146B2
:1022E000384600F08FF807463A460321342000F0C4
:1022F000C0F823E0022C00D0E2E71FE0022C00D05F
:10230000DEE71BE0022C00D0DAE7687820B1012874
:1023100003D0022803D101E002E001E000E000BFA9
:1023200000BF00273146384600F06CF807463A46B1
:102330000321342000F09DF800E000BF00BF00BF83
:10234000BEE7000072657475726E206F6B0D0A0037
:1023500072657475726E206572720D0A000000005D
:1023600074656D70000000006461793A2564207422
:10237000656D702076616C75652069733A25640D12
:102380000A0000000000002068756D6964697479B6
:10239000000000006461793A25642068756D696405
:1023A0006974792076616C75652069733A25640DCE
:1023B0000A00000004000020706D323500000000AB
:1023C0006461793A256420706D32352076616C75D0
:1023D000652069733A25640D0A000000636F6E641E
:1023E0006974696F6E0000002578000054000020B9
:1023F0002020202020202020256420202020202094
:1024000020202000FB4B1A181170431C98B2704713
:102410002DE9F04104460E461546F64807192A46AE
:1024200031463846FFF7B3F9601984B22046BDE85B
:10243000F08130B502460020002305E012F8015B70
:102440002C18E0B25C1CA3B28B42F7DB30BD70B538
:1024500004460D4604B105B970BD03E02078FFF7CE
:1024600093FC641C281EA5F101018DB2F6D100BFBA
:10247000F2E72DE9F04105460E46144600275520A7
:10248000DC49891F0870AA20487008468670C5700C
:10249000201208714C71E01D84B2601E81B2D548D3
:1024A000801FFFF7C6FF0746601ED249891F0F54E1
:1024B0002146D048801FFFF7CAFFBDE8F08110B564
:1024C0000024CD48007840B900212046FFF79AFF4C
:1024D000C4B20120C849087004E001212046FFF77A
:1024E00091FFC4B2224603210020FFF7C2FF10BDB6
:1024F0003EB500240020009001900290BFA0FFF79D
:1025000027F985B22A46BDA12046FFF781FFC4B254
:10251000BCA0FFF71DF985B22A46BAA12046FFF7F5
:1025200077FFC4B2BCA0FFF713F985B22A46BAA15F
:102530002046FFF76DFFC4B2B9A0FFF709F985B2D5
:102540002A46B7A12046FFF763FFC4B2B6A0FFF743
:10255000FFF885B22A46B4A12046FFF759FFC4B25E
:10256000B3A0FFF7F5F885B22A46B1A12046FFF7E0
:102570004FFFC4B20022AFA1684600F0F5F96846EB
:10258000FFF7E6F885B22A4669462046FFF740FF86
:10259000C4B2ABA0FFF7DCF885B22A46A8A120465A
:1025A000FFF736FFC4B2224603210120FFF761FF87
:1025B0003EBD10B50024224603210220FFF759FF3B
:1025C00010BD70B50546FFF785FD0646002407E0FF
:1025D0009C4810F81400A84200D103E0601CC4B26B
:1025E000B442F5DB00BF204670BD2DE9F04704463C
:1025F000267894F80180A0784FF6FF7101EA002553
:10260000E078284485B23046FFF7DBFF07468D4867
:1026100000EB47004078404502D00020BDE8F0873D
:102620002A46211D3046FFF7E9FC81464846F5E77A
:102630002DE9F04F9DB00446884601250027002073
:1026400019901A901B901C908346002664216846BE
:1026500000F0E9FA4FF000094FF0000A2078012855
:102660004FD1B8F1010F4CDB44E0675D0F22002130
:1026700019A8FFF77BF8B81E82B26019411C19A88F
:10268000FFF785F8E819205C303800F0FF0B681C74
:102690003844265C26B1012E02D01DB0BDE8F08F73
:1026A000642200216846FFF761F8681C384400F195
:1026B000010914F809A04EB904EB0900421CF1B25B
:1026C0005B460DF16600FFF781FD10E0012E0ED193
:1026D0001FFA8AF204EB0900411C6846FFF757F81D
:1026E000F1B25B466A460DF16600FFF76FFDF81C1C
:1026F000504405444545B8DB002211462120FFF730
:10270000B8FE00BFC9E72DE9F04704464E49E01C7A
:1027100011F80080B8F1060F42D007DCB8F1060FBF
:1027200064D2DFE808F015181B1E3539B8F1200F08
:102730005DD006DCB8F1080F5AD0B8F11C0F55D1A6
:102740008FE0B8F1210F54D0B8F1340FF7D1A5E0E4
:10275000FFF7B5FEB2E0FFF7CBFEAFE0FFF729FFD2
:10276000ACE03949A01D085C3849087000220321FB
:102770000846FFF77EFE35480078032807D1344825
:10278000007820B9FFF7BAFC01203149087095E0C4
:1027900001203049087091E001202F4908708DE038
:1027A0002949601D095C284A201D105C41EA002669
:1027B000002518E0A01D2844801C2349085C4FF622
:1027C000FF7101EA0027A01D2844C01C1E49085CB7
:1027D000384487B22144891D4819FFF706FF814616
:1027E000381D284485B2B542E4DB67E065E03EE091
:1027F00034E044E020080020780200207B22702290
:102800003A220000787434686E7066776777717466
:102810007A617A6600000000222C2276223A220099
:10282000312E302E30000000222C226D223A000082
:10283000320000002C226C6F77223A2564000000E1
:102840007D000000444300080C04002077020020B3
:10285000790200207502002076020020FFF7ADFA11
:102860002CE029492144881DFFF736FC26E0264B41
:10287000E21D995CA21D985CFFF798FC1EE02249BE
:10288000601D095C204A201D105C41EA00261146AB
:102890002144881D3146FFF7CBFE0FE01A49601D29
:1028A000095C194A201D105C41EA002611462144AA
:1028B000881D3146FFF7F6FC00E000BF00BFBDE811
:1028C000F0871248006812490968884201D0012047
:1028D00070470020FCE70E4909680C4A12689142D3
:1028E00010D00B490A680B498A4203D3A1F2072191
:1028F000074A116006490968087805490968491CB2
:10290000034A1160704700000C0400206C02002094
:10291000700200201A080020704700007CB51D4698
:1029200016460C00009001D02044401E074B7B440B
:102930002A4669460190304600F08BFA05461CB1E4
:102940000020694600F098FA28467CBD5105000039
:102950000FB4044910B503AA029800F0B1FA10BCF4
:102960005DF814FB340000200FB41CB5084B06AA18
:102970007B4469460090059800F06BFA04460020FD
:10298000694600F079FA20461CBC5DF814FB000093
:102990000505000070B50C460546012A05D02878CB
:1029A000800600D5EA69002302E0012305E05B1CF4
:1029B000934202D2E05C0028F9D1A869E618C01A57
:1029C000A861286A18442862284600F097F904E0B4
:1029D000D5E9012114F8010B9047B442F8D32846F9
:1029E00000F0A2F970BD00002DE9F0410646002478
:1029F00010687529314616A510D000F0A6F90028F8
:102A000002DA404213A507E031688A0701D512A512
:102A100002E0490704D511A5012401E000F09EF968
:102A200000210A2206F1240709E0B0FBF2FCB0FB0A
:102A3000F2F302FB1C00303078541846491C002881
:102A4000F3D123462A463046BDE8F04100F08FB965
:102A5000000000002D0000002B00000020000000FE
:102A60002DE9F05F894604464FF0000ADFF874B1A3
:102A7000FB44C0F820A02046E1688847002874D0B5
:102A8000252806D0D4E901219047206A401C206205
:102A9000F1E700265F462046E16888472028054682
:102AA00007DB312D05D2781910F8200C08B1064348
:102AB000F1E7B00701D526F00406C4F81CA00027F2
:102AC000C4F818A02A2D09D0284601F003FC38B319
:102AD00004EB8708303DC8F8185019E059F8041B7A
:102AE000204604EB87029161E1688847012F054683
:102AF00018D1E069002820DA26F020061DE0D8F879
:102B0000180000EB800005EB40003038C8F81800D2
:102B10002046E1688847054601F0DCFB0028EED13D
:102B2000012F0AD02E2D08D12046E16888477F1C4E
:102B30000546022F46F02006C4DBA069002803DA10
:102B4000404246F00106A061F00701D026F01006D1
:102B50006C2D0BD0682D09D04C2D39D06A2D35D075
:102B6000742D35D07A2D33D016E038E0E1682F4649
:102B700020468847B842054609D16C2F26D04FF42D
:102B80008060E168064320468847054604E06C2FD4
:102B90001AD04FF4807006430DB3A5F141001928F7
:102BA00002D8203546F400664A462946204626606B
:102BB0004E46FDF717FB80B101280BD0F61D26F01D
:102BC000070000F1080956E74020E4E78020D8E735
:102BD0000020D6E706F104094DE7284652E7206AAF
:102BE000BDE8F09FFC18000010B5431C02E010F88F
:102BF000011B71B18107FAD14FF0013202C88C1A62
:102C00008C4314EAC211F9D0C01A0A0603D0C01EC0
:102C100010BDC01A10BD0A0401D0801E10BD0902EB
:102C2000FCD0401E10BD4FF0000200B51346944684
:102C30009646203922BFA0E80C50A0E80C50B1F114
:102C40002001BFF4F7AF090728BFA0E80C5048BF28
:102C50000CC05DF804EB890028BF40F8042B08BFC6
:102C6000704748BF20F8022B11F0804F18BF00F8C2
:102C7000012B70474FF0013C50F8042B51F8043BF6
:102C80009A4221D1A2EB0C03934313EACC1317D140
:102C900050F8042B51F8043B9A4215D1A2EB0C03D7
:102CA000934313EACC130BD150F8042B51F8043B97
:102CB0009A4209D1A2EB0C03934313EACC13DBD065
:102CC0004FF00000704700BFD01A01BAB1FA81F18D
:102CD00001F0180122FA01F0CB40C1F12001DBB272
:102CE000C0B2C01A2CFA01F3D11A914311EAC311F0
:102CF000E6D17047704770477047704770B504461B
:102D000085690068C10601D5302600E02026C0078D
:102D100007D070BDD4E9012130469047206A401C9D
:102D200020626D1EF6D570BD70B5044685690078C9
:102D3000C00707D170BDD4E9012120209047206A47
:102D4000401C20626D1EF6D570BD09684A0501D58C
:102D500040B27047C905FCD500B2704709684A0502
:102D600001D5C0B27047C905FCD580B270472DE9C6
:102D7000F0470D4699469246044600F12408016842
:102D8000880604D5E06921F01001216000E00120EF
:102D9000A84201DD471B00E00027A1697A1902EB78
:102DA0000900081AA0612078C00602D42046FFF767
:102DB000A5FF002608E0D4E901211AF80600904793
:102DC000206A401C761C20624E45F4DB2078C00649
:102DD0000AD52046FFF792FF06E0D4E90121302012
:102DE0009047206A401C2062381EA7F10107F4DCDE
:102DF00007E0D4E9012118F805009047206A401C3B
:102E00002062281EA5F10105F3DC2046FFF78CFFA8
:102E10002078000602D50220BDE8F0870120FBE7FC
:102E200011680268006A530501D508700AE0D305ED
:102E300001D5088006E0130603D5C217C1E90002D8
:102E400000E008600120704701694A1C02610878AF
:102E5000704700B58FB0CDE90131002105910549DA
:102E60007944CDE9031011466846FFF7F9FD0FB02C
:102E700000BD0000E5FFFFFF0A6802F8010B0A60D1
:102E80007047D1E900239A4202D2531C0B601070A4
:102E9000704710B5436913B1AFF3008001E0FFF74D
:102EA00079FD012010BD127800F124010A70002282
:102EB0004A700122EDE711684FF0FF32E9E70000A8
:102EC000074B70B50D467B44FFF7C3FF0446284609
:102ED00000F00EFD10B14FF0FF3070BD204670BD08
:102EE00023D9FFFF2DE9FF5F15468A460446DFF828
:102EF000AC80F8440027D8E900103E46CDE9001028
:102F000010E03AF816106A4602A800F0F5FC411CE1
:102F100007D02178890603D5E269391891420DD886
:102F20000744761C2078800602D5E069B84205DDAA
:102F3000AE42E6DB3AF816000028E2D1A069C01BD9
:102F4000A0612046FFF7DAFED8E90010CDE90010B5
:102F5000002017E03AF818106A4602A800F0CCFCEE
:102F6000B0F1FF3F81460BD000250DF1080B05E0C5
:102F7000D4E901211BF8050090476D1C4D45F7D39E
:102F800008F10100B0428046E4DB206A3844206248
:102F90002046FFF7C9FEBDE8FF9F00008E14000029
:102FA0002DE9F0418046D21D22F007020025D2E92A
:102FB0000002F52915A614D0011E72F1000106DAEF
:102FC0000023D0EB030063EB020211A608E0D8F85F
:102FD00000108B0701D50FA602E0490701D50EA608
:102FE00001251146002408F1240704E000F098F8B8
:102FF00030323A55641C50EA0102F7D12B46324672
:1030000021464046BDE8F041FFF7B1BE0000000098
:103010002D0000002B0000002000000030B4002133
:1030200000F1240408E002F00705D208303542EA36
:103030004372DB086554491C52EA0305F3D1046866
:10304000002310A2250707D5A40600D421B1C46926
:1030500001230DA2641EC46130BCFFF788BE10B509
:10306000044621461068FFF779FE02462046BDE877
:1030700010400023D2E7D21D22F00701D1E900233E
:10308000CCE700000000000030000000F0B40D4666
:103090000188090502D5214C7C4402E01F4C7C4488
:1030A0000E34002100F1240608E002F00F07120997
:1030B000E75D42EA03721B097754491C52EA030791
:1030C000F3D102780023120704D5702D06D009B180
:1030D000022311342246F0BCFFF749BE012310340D
:1030E000F8E770B504460D4621461068FFF736FE36
:1030F000024629462046BDE870400023C6E7D21D9F
:1031000022F00703D3E90023C0E70368126843F005
:10311000200303600823C3610023B7E7F012000017
:1031200030B5B0F10A024FEA900E71F100034EEA99
:10313000817EB0EB0E0061EB91014FEA101E4EEA6A
:10314000017E10EB0E0041EB11114FEA102E4EEAFA
:10315000016E10EB0E0041EB11214FEA104E4EEACA
:10316000014E10EB0E0041EB1141401841F10001FE
:103170004FEAD00040EA41704FEAD10110EB8005E0
:103180004FEA810444EA907444EB01046D1944EB66
:103190000404521BA3414FF0000348BF0A3200D57C
:1031A00030BD401C41F1000130BD70472DE9FF4F9B
:1031B0000C461E464FF0FF378BB0D2E90001DDF818
:1031C00060800A908A46C1F30A5505B93D46002140
:1031D00008464FF00000BAF1000F00F4400005DA95
:1031E00000EB80004FF4400101EA50004FEA905993
:1031F000B9F1010F00DDB9460A9850EA4A000ED035
:1032000044F61050A5F2FF3545432F14B8F1000FD6
:103210001ED07542291E1EDDC9F100021CE0B8F166
:10322000010F4FF0000001D0302103E0F24305E030
:103230002154401CB042FBDB3046002200212154C7
:103240000B99C1F80880C1E900200FB0BDE8F08FEC
:10325000BD1B6D1CDEE74A4600DA694206A800F095
:10326000DDFB06AB93E8070003AB83E8070050469D
:103270000A9900F053FC8DE80700A0F500501F38B4
:1032800000900398002D0ADD42F21F014A460844CF
:10329000002303A90390684600F0BCFE09E0A0F5F6
:1032A00000504A461F38002303A90390684600F0E7
:1032B000C6FE8DE807000004000C03D04FF0FF307D
:1032C000410800E01046B8F1000F03D00022009240
:1032D00015461EE0751E05D4FFF722FF30326255F9
:1032E0006D1EF9D5B3460122084302D000227F1C8F
:1032F00004E02078302801D100227F1E002A09979F
:1033000084D01DE0112D07DAFFF70AFF3032625535
:103310006D1C50EA0102F5D1084302D00098C8B1F3
:103320000EE00021681E05E0235C625C63542254B9
:10333000401E491C8142F7DBAB46A81B401E09908A
:10334000002004F80B000B98099AC0F80880C0E927
:10335000002B7AE711264FF0000857E72DE9F04FD0
:1033600088460446D21D22F0070191B0D1E9000140
:10337000CDE90A0100F09AFF02460B98C00F01D078
:103380002D2007E02068810701D52B2002E02021B5
:1033900001EAC000032A099001D0072A05DB034691
:1033A0004146204600F0FAFA0BE12078800601D56C
:1033B000E06900E00620B8F1650F814606D0B8F15B
:1033C000660F18D0B8F1670F70D131E00020B9F165
:1033D000110F009001DB112301E009F101030AAA9A
:1033E00001A90CA8FFF7E2FEDDE90C70002609F147
:1033F0000105834647E001204B4600904FF000470F
:103400000AAA01A90CA8FFF7D1FEDDE90DB00C99BD
:103410005D46002610B909F101000D18B9EB050051
:1034200003D4C0F1FF3609F10105A5EB09002BE03B
:10343000B9F1010F01DA4FF001090020B9F1110FC4
:103440000090484601DD112300E003460AAA01A9C5
:103450000CA8FFF7ABFEDDE90C704D460026834655
:10346000207800070AD4AB4500DA5D4601A8012D9B
:1034700004DD411911F8011C302907D04F4502DA4B
:1034800017F1040F04DA012082460FE06D1EEEE70B
:10349000002F02DCED1B3E4403E0781CA84200DD57
:1034A0007D1CB81B00F1010A4FF00047207800078F
:1034B00003D4AA4501DB4FF0FF3A0021B7F1004FDA
:1034C0000DF143088DF8431024D002202B23002F48
:1034D00001DA7F422D230A21021EA0F1010000DC47
:1034E0005FB197FBF1FC97FBF1F201FB1C7C1746E7
:1034F0000CF1300C08F801CDEEE7A8F101000370E3
:103500002188090501D5452100E06521A0F10108C8
:1035100000F8011C09980FA9A1EB0807FF1D00B1D5
:103520000120411901EBEA70A1693844081A401ED4
:10353000A0612078C00602D42046FFF7DFFB09987F
:1035400028B1D4E901219047206A401C20622078EC
:10355000C00622D52046FFF7D1FB1EE0002E04DB7B
:10356000B34502DD01A8805D00E03020D4E90121EF
:103570009047206A401C2062761CAAF101005FEA95
:10358000000A0AD100F006FAC0680168405CD4E97C
:1035900001219047206A401C2062281EA5F10105E8
:1035A000DCDC07E0D4E9012118F8010B9047206A20
:1035B000401C2062381EA7F10107F3DC2046FFF70C
:1035C000B3FB032011B041E62DE9F04F04460D4650
:1035D000D21D22F0070089B0D0E90097484639464D
:1035E00000F064FE0246F80F01D02D2307E02068AA
:1035F000810701D52B2302E0202101EAC0038DF8C9
:1036000020300BB1012000E00020032A824601D0C7
:10361000072A04DB2946204600F0C0F93FE1207864
:10362000800601D40D2500E0E569C7F30A560D2D8B
:1036300049DA00214FEA175B08464FF00000002FDF
:1036400000F4400007DA00EB80004FF4400100EB8B
:10365000D07001EA60008115012901DD4FF0FF31D2
:1036600000224FEA850CBCF1180F06D31346ACF1CB
:1036700018004FF08052C24003E04FF4801323FA49
:103680000CF30CF10C0CBCF1200F04D3ACF1200CAA
:1036900009FA0CF001E007FA0CF000294FF000489D
:1036A00001DD18B90FE00ED140450CD319EB02092A
:1036B0005F4121B9404502D19F4329EA0209BBEB92
:1036C000175F00D0761C2088000502D57B4878441F
:1036D00002E07A487844193808AA302302F80A3000
:1036E000037C0AF10101002E0AF1020A53546A46D2
:1036F00002DC4FF0300101E04FF031014FF00108E2
:103700008DF8001002D0A6F2FF3603E059EA470117
:1037100000D06B4E002D02DC2178090704D54FF054
:1037200002082E218DF80110C44600210BE0C7F3DA
:1037300003433F01C35C491C6D1E02F80830052994
:1037400008F1010801DA002DF1DC00210CE000EBAA
:103750001973491C1B786D1E082902F808304FEABE
:10376000091908F1010801DA002DF0DC21688B0647
:1037700002D516E0A8F10108E04505DD02EB0803DB
:1037800013F8013C302BF5D0B8F1000F09DD02EB46
:10379000080313F8013C2E2B03D1090701D4A8F12B
:1037A0000108002D05DD3E2102F808106D1E08F10C
:1037B0000108407C002E02F8080008F1010804DA34
:1037C0002D20764202F8080002E02B2002F80800C3
:1037D0000A214FF47A70864208F101080BDB96FB50
:1037E000F0F3303302F8083096FBF0F308F10108EB
:1037F00000FB136601E0642E0CDB642096FBF0F303
:10380000303302F8083096FBF0F308F1010800FBB2
:10381000136601E00A2E06DB96FBF1F0303002F869
:10382000080008F1010896FBF1F001FB1060303050
:1038300002F80800A16908F1010808EB050202EB93
:103840000A00081AA0612078C00602D42046FFF7BB
:1038500055FA216A08AE01EB0A00206204E0D4E9BF
:10386000012116F8010B9047BAF1010AF7D220782E
:10387000C00602D52046FFF741FA6E4609E016F869
:10388000010B3E280FD0D4E901219047206A401C4B
:103890002062B8F10108F2D22046FFF745FA09B0DC
:1038A0000320BDE8F08F206A2844206203E0D4E9B9
:1038B0000121302090476D1EEBD3F8E7F50C000096
:1038C00002FCFFFF10B5436913B1AFF3008001E0C4
:1038D000FFF708FB012010BD128800F1240182844B
:1038E0000022C2840122EDE711684FF0FF32E9E7C0
:1038F000007B00F08000704770B516460C46054608
:1039000000F040F8036893F80101012806D0FF2C6D
:103910000FD8185D68B101202C7070BDD3F8070175
:103920003246214603F2071303442846BDE870409F
:1039300018474FF0FF3070BD754600F0EBF8AE460B
:1039400005006946534620F00700854618B020B5AB
:10395000FDF7C4F8BDE820404FF000064FF0000727
:103960004FF000084FF0000B21F00701AC46ACE827
:10397000C009ACE8C009ACE8C009ACE8C0098D4694
:103980007047000010B500F005F8001D10BD00BF25
:103990008109000000487047440A00202DE9F041E9
:1039A0001F46044603260168072A01F4006004DB71
:1039B00008B116A505E016A503E008B115A500E0BD
:1039C00015A521F010002060A069C01EA0610FB1F4
:1039D000401EA0612046FFF791F94FB1D4E90121C3
:1039E00038469047206A401C2062C01C206206E0D6
:1039F000206AFAE7D4E9012115F8010B9047761EF9
:103A0000F8D22046FFF790F9BDE8F0814E414E0014
:103A10006E616E00494E4600696E66002DE9F04702
:103A2000814616468AB0354878440DC88DE80D00A9
:103A300032487844801C03AC0DC884E80D0041F680
:103A40009B300844372190FBF1F290FBF1F5A5F192
:103A5000800501FB12041B3C02D56442012000E0FA
:103A60000020DFF898A080460027FA44AAF1BE0A99
:103A70000EE0E0070AD03246684607EB4701012313
:103A80000AEB810100F0DBFA8DE8070064107F1C6F
:103A9000002CEED1194F7F44AE3F19E0E80715D056
:103AA00007EB04100DF1180A90E80E008AE80E00EA
:103AB000C068F04201D1981908903246012306A946
:103AC00003A800F0BCFA03AB83E807006D10641C88
:103AD000002DE3D14FF0010332466946B8F1000FE3
:103AE00003A802D000F096FA01E000F0A8FAC9E9B4
:103AF0000001C9F808200AB0BDE8F0872C0A0000D0
:103B000010B50446AFF300802046BDE81040FCF736
:103B1000CCBB000000487047240A00205FEA400C3C
:103B200008BF91F0000F4FEA8C234FEAC12243EA0D
:103B300051514FEA1C5018BF00F5F0404FEA3000D9
:103B400018BF41F000415FEA6C5C00F02980BCF1D5
:103B5000FF3F08BF40F080407047130C06BF1204BF
:103B60004FF0100C4FF0000C130E04BF12020CF1BA
:103B7000080C130F04BF12010CF1040C930F04BFC7
:103B800092000CF1020CD30F04BF52000CF1010C97
:103B900011464FF00002A0F11F00A0EB0C0070478F
:103BA00011F0004F08BF704731F000413FF4D5AF2E
:103BB0000B0C06BF09044FF0100C4FF0000C0B0E5D
:103BC00004BF09020CF1080C0B0F04BF09010CF132
:103BD000040C8B0F04BF89000CF1020CCB0F04BF47
:103BE00049000CF1010CCCF12003A0EB0C0022FAEF
:103BF00003F302FA0CF241EA030100F101007047FD
:103C000020F07F4C80EA030023F07F47ACEB0703F2
:103C100003F57C5300F0004003F1FF032DE98049D8
:103C20004FEA154B09B44FEA144325EA0B4E24EA38
:103C300003480FF2042606EB132749083E785FEA93
:103C4000320203FB0667C7F5000707FB06F64FEADB
:103C500054374FEAD64606F1020607FB066CCCF154
:103C6000005C4FEA1C472CEA074C07FB06F40CFBF0
:103C700006F504EB15464FEA961634BF00204FF0C8
:103C800000404FEAD13706FB07FC4FEA1C4C0CFB07
:103C90000BF7D21B03FB0CF761EB07010CFB0EF7D4
:103CA000B0EB074072EB17420CFB08F734BFA2EBF6
:103CB0000742B2EB074261EB17414FEA0C444FEA6F
:103CC000910706FB07FC4FEA1C4C0CFB0BF7B0EB13
:103CD000C74072EB573203FB0CF734BFA2EBC7426D
:103CE000B2EBC74261EB57310CFB0EF7B0EBC700EC
:103CF00072EB57720CFB08F734BFA2EBC702B2EBB2
:103D0000C70261EB5771039F4FEA816141EA92114B
:103D100004EBCC044FEAD1374FEA826206FB07FC82
:103D200042EA90124FEA80604FEA1C4C0CFB0BF702
:103D3000D21B03FB0CF761EB07010CFB0EF7B0EB9A
:103D4000074072EB17420CFB08F734BFA2EB0742A7
:103D5000B2EB074261EB17414FEA8C554FEA9107EE
:103D600004EB9C2406FB07FC4FEA1C4C0CFB0BF7F6
:103D7000B0EBC74072EB573203FB0CF734BFA2EB3A
:103D8000C742B2EBC74261EB57310CFB0EF7B0EB09
:103D9000C70072EB57720CFB08F734BFA2EBC702E7
:103DA000B2EBC70261EB577115EB4C254FEA81610D
:103DB00041EA92114FEA82624FEAD13742EA901209
:103DC00006FB07FC44F100044FEA80604FEA1C4CFC
:103DD0000CFB0BF7D21B03FB0CF761EB07010CFB91
:103DE0000EF7B0EB074072EB17420CFB08F734BF3D
:103DF000A2EB0742B2EB074261EB174115EB1C1532
:103E00004FEA813141EA92414FEA823242EA9042DE
:103E10004FEA80304FEA0C7644F1000448EA03434D
:103E20004EEA0B484FF0000EB2EB080C71EB0307A3
:103E300024BF624639464EEB0E0E4FF0000B0018C1
:103E4000524149414BEB0B0BB2EB080C71EB0307F2
:103E50007BF1000B24BF624639464EEB0E0E4FF04D
:103E6000000B0018524149414BEB0B0BB2EB080C15
:103E700071EB03077BF1000B24BF624639464EEB22
:103E80000E0E51EA020718BF46F0010616EB0E7639
:103E900055F1000254F1000103D5BDE88901BDE8E8
:103EA0000088BDE88901BDE80048B619524141EBE0
:103EB0000101A3F10103704780807F7E7D7C7B7AC6
:103EC0007978777676757473727171706F6E6E6DC6
:103ED0006C6C6B6A6A69686867666665646463636C
:103EE00062616160605F5F5E5E5D5D5C5C5B5B5AF2
:103EF0005A5959585857575656555555545453535F
:103F000052525251515050504F4F4F4E4E4D4D4DB9
:103F10004C4C4C4B4B4B4A4A4A4949494848484704
:103F20004747474646464545454444444443434342
:103F30004342424242414141002B9C4630D47700EB
:103F40002BD01CB54FEA370703B44FF010004FF0E9
:103F50001001BAF1000F06D0BCF1000FDCBF40F039
:103F6000080040F008014FF000000FBCBDE8104011
:103F70000BF1010BBBF1010F08BF5FEA170722BF6E
:103F800012F1010211F101014FF0004143F1000370
:103F900000F0004043EA00007047F9D35708D0E72B
:103FA00046EA064613F1400F4FEA16461FDD13F1AD
:103FB000200FDFBF16430A46002120335B42BED0EC
:103FC000C3F1200746EA064602FA07F74FEA16460B
:103FD00046EA0706C3F1200722FA03F201FA07F7BF
:103FE00021FA03F14FF0000342EA0702A7E746EA8D
:103FF000020646EA06464FEA164646EA0106BCBFF6
:1040000046EA0646360C4FF000034FF000024FF030
:10401000000194E72DE9804C9A46934670B491E8EC
:10402000380007C831EA400C48BF34EA430C03D5D6
:10403000FFF7E6FDFFF780FFF0BCBDE8008C2DE93F
:10404000804C9A46934670B491E8380007C810F047
:10405000804F08BF13F0804F03D100F005F8FFF741
:104060006BFFF0BCBDE8008C20F07F4780EA0300C6
:1040700023F07F4C07EB0C03A3F57C5300F00040CA
:10408000A3F1FE0392F0000F00F0B38095F0000F53
:1040900000F077802DE901494FEA11404FEA1446BC
:1040A00021EA004800FB06FC24EA064708FB06F666
:1040B00007FB08F800FB07F718EB06484CEB164C1B
:1040C0004FEA124B18EB07484FEA15464CEB1740E6
:1040D00022EA0B4E0BFB06FC25EA06470EFB06F612
:1040E00007FB0EFE0BFB07F71EEB064E4CEB164CC8
:1040F0004FF000061EEB074E4CEB174B18EB0B086E
:1041000040F1000018EB0E0B58EB000840F10000E6
:104110008F1A4FF000013CBFC943661B14BFB5EBBB
:10412000040C00213CBFC943F61B4FEA17444EEA7A
:104130008E0E27EA04454FEA1C4704FB07622CEA6F
:10414000074C05FB07F70CFB05F604FB0CFC16EB14
:10415000074642EB174216EB0C4642EB1C421BEBA8
:10416000060658EB0202414146EA9E0601D5BDE82B
:104170000189B619524141EB0101A3F10103BDE8E8
:1041800001894FEA14454FEA114724EA054621EA1E
:10419000074C05FB07F406FB07F70CFB06F105FBD4
:1041A0000CFC11EB074144EB17444FEA124711EBAB
:1041B0000C4144EB1C4422EA074C05FB07F206FBCA
:1041C00007F70CFB06F605FB0CFC16EB074642EB6B
:1041D000174216EB0C4642EB1C456A1854F10001DD
:1041E00048BF7047B619524141EB0101A3F10103E9
:1041F000704795F0000F37D04FEA11424FEA14474D
:1042000021EA024624EA074C02FB07F106FB07F706
:104210000CFB06F402FB0CFC14EB074441EB1741CA
:104220004FEA154714EB0C4441EB1C4125EA074CBF
:1042300002FB07F506FB07F70CFB06F602FB0CFC7E
:1042400016EB074645EB174516EB0C4645EB1C42B3
:10425000121951F1000148BF7047B619524141EBA4
:104260000101A3F1010370474FEA14454FEA1147DA
:1042700024EA054621EA074C05FB07F106FB07F790
:104280000CFB06F24FF0000605FB0CFC12EB07429C
:1042900041EB174112EB0C4251EB1C4148BF7047F8
:1042A000921841EB0101A3F101037047490050EA64
:1042B000C12018BF04204A0D18BF40F0010040F291
:1042C000FF72B2EB515F08BF40F00200012808BF47
:1042D0000520704730380A2801D20120704700209D
:1042E0007047000010B500290AD00878002807D0D0
:1042F00005487844FEF7BEFC002801D0002010BD20
:104300000248784410BD0000C6010000BE01000054
:1043100010B500290AD00878002807D0054878444D
:10432000FEF7A8FC002801D0002010BD0248784408
:1043300010BD0000B6010000AE010000FFF70EB88E
:10434000FFF742B90102020203040402050106025A
:104350000702080109040A020B020C020D020E04F6
:104360000F041002110212021302140215011602A8
:10437000040000080000000000000002000100002E
:104380001000000000000000000000003031323357
:104390003435363738394142434445464030580079
:1043A00030313233343536373839616263646566AB
:1043B0004030780030313233343536373839616245
:1043C000636465667870003031323334353637389F
:1043D0003941424344454658500000000240000025
:1043E000000000A00000000005400000000000C820
:1043F000000000000C4000000000409C0000000095
:10440000194000000020BCBE000000003440000045
:10441000BFC91B8E00000004B5400000504BCFD038
:104420006607E2CF010000006C4100003E8251AA05
:10443000DFEEA73401000000D9420000DCB5A0E2A5
:104440003A301F97FFFFFFFFB4450000FD25A0C8CD
:10445000E9A3C14FFFFFFFFFFF3F00000000008006
:1044600000000000FF3F000000000080000000008E
:10447000706D323500000000636F6E646974696F9F
:104480006E00000074656D700000000068756D6955
:104490006469747900000000E44500080000002011
:1044A0007C0200006C010008F44600087C02002039
:1044B0000C0E0000C80100081C00000043000000B2
:1044C000F8FFFFFF0C0000000E0000000F000000CE
:1044D0002E0000001001000043000000F8FFFFFF65
:1044E0000040404040404040404041414141414007
:1044F00040404040404040404040404040404040BC
:10450000400502020202020202020202020202024A
:10451000022020202020202020202002020202024F
:1045200002029090909090901010101010101010A7
:1045300010101010101010101010101002020202B3
:1045400002028888888888880808080808080808F7
:1045500008080808080808080808080802020202F3
:10456000400000000000000000000000000000000B
:10457000000000000000000000000000000000003B
:10458000000000000000000000000000000000002B
:10459000000000000000000000000000000000001B
:1045A000000000000000000000000000000000000B
:1045B00000000000000000000000000000000000FB
:1045C00000000000000000000000000000000000EB
:1045D00000000000000000000000000000000000DB
:1045E00000000000011D84A24A0400091101020319
:1045F00004060708092919691D350204060894E60E
:1046000099B467E5A4A7E99BA85EE99BB7E69A1B66
:104610004FE6B299E5B0980F6FE5B08FE99BAA24F9
:10462000590929185E86BBE99BBE307B9AB44818AD
:104630000AE5B180E983A8E998B5121CE6B5AE4851
:1046400079605CE794B524195439213918593949EE
:104650000C4CE5A4B96619393FE58DB7E9A38E6C1A
:104660005DB0E7B2923C7BBCBA9F1CE689AC0C798A
:10467000543FE588B0E4B8AD451AA78419EA7CE652
:104680009C97A5296069754948790F293069DB1C19
:10469000E789B90F49D2390659181984FCE99BB941
:1046A0006CC808AAE5B091E4BA91D82933491E69CB
:1046B0007892B429485B92880C696939187ABB9C56
:1046C0007945595479188A9CCC49EA69487A9A8480
:1046D0007CE99BB7D8192419A839DE1AA806190C49
:1046E000496F1384441B088C041A78041A7004015F
:0446F00014000000B2
:0400000508000131BD
:00000001FF
